{"abi":[{"type":"function","name":"collectToken","inputs":[{"name":"_collectData","type":"tuple[]","internalType":"struct DataTypes.CollectData[]","components":[{"name":"payee","type":"address","internalType":"address"},{"name":"amount","type":"uint256","internalType":"uint256"}]},{"name":"_token","type":"address","internalType":"address"},{"name":"_reciever","type":"address","internalType":"address"}],"outputs":[{"name":"_success","type":"bool","internalType":"bool"}],"stateMutability":"nonpayable"},{"type":"function","name":"disperseETH","inputs":[{"name":"_receivers","type":"address[]","internalType":"address[]"}],"outputs":[{"name":"_success","type":"bool","internalType":"bool"}],"stateMutability":"payable"},{"type":"function","name":"disperseToken","inputs":[{"name":"_receivers","type":"address[]","internalType":"address[]"},{"name":"_amount","type":"uint256","internalType":"uint256"},{"name":"_token","type":"address","internalType":"address"}],"outputs":[{"name":"_success","type":"bool","internalType":"bool"}],"stateMutability":"nonpayable"},{"type":"function","name":"getEthHoldings","inputs":[{"name":"_user","type":"address","internalType":"address"}],"outputs":[{"name":"_userHoldings","type":"uint256","internalType":"uint256"}],"stateMutability":"view"},{"type":"function","name":"getTokenHolding","inputs":[{"name":"_token","type":"address","internalType":"address"},{"name":"_user","type":"address","internalType":"address"}],"outputs":[{"name":"_userHoldings","type":"uint256","internalType":"uint256"}],"stateMutability":"view"},{"type":"error","name":"ADDRESS_NOT_A_CONTRACT","inputs":[]},{"type":"error","name":"COLLECT_DATA_CANT_BE_EMPTY","inputs":[]},{"type":"error","name":"FAILED_TO_PAY","inputs":[{"name":"who","type":"address","internalType":"address"}]},{"type":"error","name":"NOT_ENOUGH_HOLDINGS","inputs":[]},{"type":"error","name":"RECEIVERS_CANT_BE_EMPTY","inputs":[]},{"type":"error","name":"ReentrancyGuardReentrantCall","inputs":[]}],"bytecode":{"object":"0x6080604052348015600f57600080fd5b506001600055610879806100246000396000f3fe60806040526004361061004a5760003560e01c80631fd00bc91461004f5780637f3b09951461008a5780639a751624146100ad5780639d4b87f3146100cd578063a49f7dbe146100ed575b600080fd5b34801561005b57600080fd5b5061007761006a36600461060b565b6001600160a01b03163190565b6040519081526020015b60405180910390f35b61009d610098366004610672565b61010d565b6040519015158152602001610081565b3480156100b957600080fd5b506100776100c83660046106b4565b61022a565b3480156100d957600080fd5b5061009d6100e83660046106e7565b6102c5565b3480156100f957600080fd5b5061009d610108366004610744565b61048d565b600081810361012f57604051632767611f60e21b815260040160405180910390fd5b600061013b83346107d0565b905060005b838110156102225784848281811061015a5761015a6107f2565b905060200201602081019061016f919061060b565b6001600160a01b03168260405160006040518083038185875af1925050503d80600081146101b9576040519150601f19603f3d011682016040523d82523d6000602084013e6101be565b606091505b5050809350508261021a578484828181106101db576101db6107f2565b90506020020160208101906101f0919061060b565b60405163a17757e560e01b81526001600160a01b0390911660048201526024015b60405180910390fd5b600101610140565b505092915050565b60006001600160a01b0383163b61025457604051630b85410b60e31b815260040160405180910390fd5b6040516370a0823160e01b81526001600160a01b0383811660048301528416906370a0823190602401602060405180830381865afa15801561029a573d6000803e3d6000fd5b505050506040513d601f19601f820116820180604052508101906102be9190610808565b9392505050565b60008381036102e757604051632767611f60e21b815260040160405180910390fd5b6001600160a01b0382163b61030f57604051630b85410b60e31b815260040160405180910390fd5b6040516370a0823160e01b815233600482015282906001600160a01b038216906370a0823190602401602060405180830381865afa158015610355573d6000803e3d6000fd5b505050506040513d601f19601f820116820180604052508101906103799190610808565b84111561039957604051633dde004b60e11b815260040160405180910390fd5b60006103a586866107d0565b905060005b8681101561048257826001600160a01b03166323b872dd338a8a858181106103d4576103d46107f2565b90506020020160208101906103e9919061060b565b6040516001600160e01b031960e085901b1681526001600160a01b03928316600482015291166024820152604481018590526064016020604051808303816000875af115801561043d573d6000803e3d6000fd5b505050506040513d601f19601f820116820180604052508101906104619190610821565b93508361047a578787828181106101db576101db6107f2565b6001016103aa565b505050949350505050565b60006001600160a01b0383163b6104b757604051630b85410b60e31b815260040160405180910390fd5b60018410156104d95760405163026bee6960e51b815260040160405180910390fd5b8260005b858110156105e557816001600160a01b03166323b872dd888884818110610506576105066107f2565b61051c926020604090920201908101915061060b565b868a8a8681811061052f5761052f6107f2565b6040805160e088901b6001600160e01b03191681526001600160a01b0396871660048201529490951660248501529093020160200135604482015260640190506020604051808303816000875af115801561058e573d6000803e3d6000fd5b505050506040513d601f19601f820116820180604052508101906105b29190610821565b9250826105dd5760405163a17757e560e01b81526001600160a01b0385166004820152602401610211565b6001016104dd565b5050949350505050565b80356001600160a01b038116811461060657600080fd5b919050565b60006020828403121561061d57600080fd5b6102be826105ef565b60008083601f84011261063857600080fd5b50813567ffffffffffffffff81111561065057600080fd5b6020830191508360208260051b850101111561066b57600080fd5b9250929050565b6000806020838503121561068557600080fd5b823567ffffffffffffffff81111561069c57600080fd5b6106a885828601610626565b90969095509350505050565b600080604083850312156106c757600080fd5b6106d0836105ef565b91506106de602084016105ef565b90509250929050565b600080600080606085870312156106fd57600080fd5b843567ffffffffffffffff81111561071457600080fd5b61072087828801610626565b90955093505060208501359150610739604086016105ef565b905092959194509250565b6000806000806060858703121561075a57600080fd5b843567ffffffffffffffff81111561077157600080fd5b8501601f8101871361078257600080fd5b803567ffffffffffffffff81111561079957600080fd5b8760208260061b84010111156107ae57600080fd5b6020918201955093506107c29086016105ef565b9150610739604086016105ef565b6000826107ed57634e487b7160e01b600052601260045260246000fd5b500490565b634e487b7160e01b600052603260045260246000fd5b60006020828403121561081a57600080fd5b5051919050565b60006020828403121561083357600080fd5b815180151581146102be57600080fdfea2646970667358221220329b12f267d07120b019fc9fbcb3cae561ec2d46d9e5a7ac8a5984772bdbf61164736f6c634300081a0033","linkReferences":{}},"methodIdentifiers":{"collectToken((address,uint256)[],address,address)":"a49f7dbe","disperseETH(address[])":"7f3b0995","disperseToken(address[],uint256,address)":"9d4b87f3","getEthHoldings(address)":"1fd00bc9","getTokenHolding(address,address)":"9a751624"},"id":32}